{
  "_format": "hh-sol-artifact-1",
  "contractName": "Bank",
  "sourceName": "contracts/bank.sol",
  "abi": [
    {
      "inputs": [
        {
          "internalType": "address payable",
          "name": "userAddress",
          "type": "address"
        },
        {
          "internalType": "uint256",
          "name": "amount",
          "type": "uint256"
        }
      ],
      "name": "TransferAmount",
      "outputs": [
        {
          "internalType": "string",
          "name": "",
          "type": "string"
        }
      ],
      "stateMutability": "nonpayable",
      "type": "function"
    },
    {
      "inputs": [],
      "name": "accountExist",
      "outputs": [
        {
          "internalType": "bool",
          "name": "",
          "type": "bool"
        }
      ],
      "stateMutability": "view",
      "type": "function"
    },
    {
      "inputs": [],
      "name": "createAcc",
      "outputs": [
        {
          "internalType": "string",
          "name": "",
          "type": "string"
        }
      ],
      "stateMutability": "payable",
      "type": "function"
    },
    {
      "inputs": [],
      "name": "deposit",
      "outputs": [
        {
          "internalType": "string",
          "name": "",
          "type": "string"
        }
      ],
      "stateMutability": "payable",
      "type": "function"
    },
    {
      "inputs": [
        {
          "internalType": "address payable",
          "name": "toAddress",
          "type": "address"
        },
        {
          "internalType": "uint256",
          "name": "amount",
          "type": "uint256"
        }
      ],
      "name": "sendAmount",
      "outputs": [
        {
          "internalType": "string",
          "name": "",
          "type": "string"
        }
      ],
      "stateMutability": "payable",
      "type": "function"
    },
    {
      "inputs": [
        {
          "internalType": "address",
          "name": "",
          "type": "address"
        }
      ],
      "name": "userAccount",
      "outputs": [
        {
          "internalType": "uint256",
          "name": "",
          "type": "uint256"
        }
      ],
      "stateMutability": "view",
      "type": "function"
    },
    {
      "inputs": [],
      "name": "userAccountBalance",
      "outputs": [
        {
          "internalType": "uint256",
          "name": "",
          "type": "uint256"
        }
      ],
      "stateMutability": "view",
      "type": "function"
    },
    {
      "inputs": [
        {
          "internalType": "address",
          "name": "",
          "type": "address"
        }
      ],
      "name": "userExists",
      "outputs": [
        {
          "internalType": "bool",
          "name": "",
          "type": "bool"
        }
      ],
      "stateMutability": "view",
      "type": "function"
    },
    {
      "inputs": [
        {
          "internalType": "uint256",
          "name": "amount",
          "type": "uint256"
        }
      ],
      "name": "withdraw",
      "outputs": [
        {
          "internalType": "string",
          "name": "",
          "type": "string"
        }
      ],
      "stateMutability": "payable",
      "type": "function"
    }
  ],
  "bytecode": "0x608060405234801561001057600080fd5b506119a5806100206000396000f3fe6080604052600436106100865760003560e01c8063d0e30db011610059578063d0e30db014610153578063d33921da14610171578063de99e0041461018f578063ea5eda32146101cc578063ecc81af51461020957610086565b80630e666e491461008b5780632e1a7d4d146100c85780635d461de5146100f8578063c137a77414610128575b600080fd5b34801561009757600080fd5b506100b260048036038101906100ad919061121a565b610234565b6040516100bf9190611262565b60405180910390f35b6100e260048036038101906100dd91906112b3565b610254565b6040516100ef9190611370565b60405180910390f35b610112600480360381019061010d91906113d0565b610475565b60405161011f9190611370565b60405180910390f35b34801561013457600080fd5b5061013d6106de565b60405161014a919061141f565b60405180910390f35b61015b6107a1565b6040516101689190611370565b60405180910390f35b610179610940565b6040516101869190611370565b60405180910390f35b34801561019b57600080fd5b506101b660048036038101906101b191906113d0565b610c1e565b6040516101c39190611370565b60405180910390f35b3480156101d857600080fd5b506101f360048036038101906101ee919061121a565b610f5f565b604051610200919061141f565b60405180910390f35b34801561021557600080fd5b5061021e610f77565b60405161022b9190611262565b60405180910390f35b60016020528060005260406000206000915054906101000a900460ff1681565b6060816000803373ffffffffffffffffffffffffffffffffffffffff1673ffffffffffffffffffffffffffffffffffffffff16815260200190815260200160002054116102d6576040517f08c379a00000000000000000000000000000000000000000000000000000000081526004016102cd906114ac565b60405180910390fd5b60011515600160003373ffffffffffffffffffffffffffffffffffffffff1673ffffffffffffffffffffffffffffffffffffffff16815260200190815260200160002060009054906101000a900460ff16151514610369576040517f08c379a000000000000000000000000000000000000000000000000000000000815260040161036090611518565b60405180910390fd5b600082116103ac576040517f08c379a00000000000000000000000000000000000000000000000000000000081526004016103a3906115aa565b60405180910390fd5b816000803373ffffffffffffffffffffffffffffffffffffffff1673ffffffffffffffffffffffffffffffffffffffff168152602001908152602001600020546103f691906115f9565b6000803373ffffffffffffffffffffffffffffffffffffffff1673ffffffffffffffffffffffffffffffffffffffff168152602001908152602001600020819055506040518060400160405280601481526020017f7769746864726177616c2053756363657366756c0000000000000000000000008152509050919050565b6060600082116104ba576040517f08c379a00000000000000000000000000000000000000000000000000000000081526004016104b1906115aa565b60405180910390fd5b60011515600160003373ffffffffffffffffffffffffffffffffffffffff1673ffffffffffffffffffffffffffffffffffffffff16815260200190815260200160002060009054906101000a900460ff1615151461054d576040517f08c379a000000000000000000000000000000000000000000000000000000000815260040161054490611518565b60405180910390fd5b816000803373ffffffffffffffffffffffffffffffffffffffff1673ffffffffffffffffffffffffffffffffffffffff16815260200190815260200160002054116105cd576040517f08c379a00000000000000000000000000000000000000000000000000000000081526004016105c490611679565b60405180910390fd5b816000803373ffffffffffffffffffffffffffffffffffffffff1673ffffffffffffffffffffffffffffffffffffffff1681526020019081526020016000205461061791906115f9565b6000803373ffffffffffffffffffffffffffffffffffffffff1673ffffffffffffffffffffffffffffffffffffffff168152602001908152602001600020819055508273ffffffffffffffffffffffffffffffffffffffff166108fc839081150290604051600060405180830381858888f1935050505015801561069f573d6000803e3d6000fd5b506040518060400160405280601081526020017f7472616e73666572207375636365737300000000000000000000000000000000815250905092915050565b600061075d6040518060400160405280600881526020017f42616c616e63653a0000000000000000000000000000000000000000000000008152506000803373ffffffffffffffffffffffffffffffffffffffff1673ffffffffffffffffffffffffffffffffffffffff16815260200190815260200160002054611056565b6000803373ffffffffffffffffffffffffffffffffffffffff1673ffffffffffffffffffffffffffffffffffffffff16815260200190815260200160002054905090565b606060011515600160003373ffffffffffffffffffffffffffffffffffffffff1673ffffffffffffffffffffffffffffffffffffffff16815260200190815260200160002060009054906101000a900460ff16151514610836576040517f08c379a000000000000000000000000000000000000000000000000000000000815260040161082d90611518565b60405180910390fd5b60003411610879576040517f08c379a0000000000000000000000000000000000000000000000000000000008152600401610870906116e5565b60405180910390fd5b346000803373ffffffffffffffffffffffffffffffffffffffff1673ffffffffffffffffffffffffffffffffffffffff168152602001908152602001600020546108c39190611705565b6000803373ffffffffffffffffffffffffffffffffffffffff1673ffffffffffffffffffffffffffffffffffffffff168152602001908152602001600020819055506040518060400160405280601581526020017f4465706f73697465642053756363657366756c6c790000000000000000000000815250905090565b606060001515600160003373ffffffffffffffffffffffffffffffffffffffff1673ffffffffffffffffffffffffffffffffffffffff16815260200190815260200160002060009054906101000a900460ff161515146109d5576040517f08c379a00000000000000000000000000000000000000000000000000000000081526004016109cc90611785565b60405180910390fd5b60003403610ab55760008060003373ffffffffffffffffffffffffffffffffffffffff1673ffffffffffffffffffffffffffffffffffffffff1681526020019081526020016000208190555060018060003373ffffffffffffffffffffffffffffffffffffffff1673ffffffffffffffffffffffffffffffffffffffff16815260200190815260200160002060006101000a81548160ff0219169083151502179055506040518060400160405280600f81526020017f6163636f756e74206372656174656400000000000000000000000000000000008152509050610c1b565b60001515600160003373ffffffffffffffffffffffffffffffffffffffff1673ffffffffffffffffffffffffffffffffffffffff16815260200190815260200160002060009054906101000a900460ff16151514610b48576040517f08c379a0000000000000000000000000000000000000000000000000000000008152600401610b3f906117f1565b60405180910390fd5b346000803373ffffffffffffffffffffffffffffffffffffffff1673ffffffffffffffffffffffffffffffffffffffff1681526020019081526020016000208190555060018060003373ffffffffffffffffffffffffffffffffffffffff1673ffffffffffffffffffffffffffffffffffffffff16815260200190815260200160002060006101000a81548160ff0219169083151502179055506040518060400160405280600f81526020017f6163636f756e742063726561746564000000000000000000000000000000000081525090505b90565b6060816000803373ffffffffffffffffffffffffffffffffffffffff1673ffffffffffffffffffffffffffffffffffffffff1681526020019081526020016000205411610ca0576040517f08c379a0000000000000000000000000000000000000000000000000000000008152600401610c97906114ac565b60405180910390fd5b60011515600160003373ffffffffffffffffffffffffffffffffffffffff1673ffffffffffffffffffffffffffffffffffffffff16815260200190815260200160002060009054906101000a900460ff16151514610d33576040517f08c379a0000000000000000000000000000000000000000000000000000000008152600401610d2a90611518565b60405180910390fd5b60011515600160008573ffffffffffffffffffffffffffffffffffffffff1673ffffffffffffffffffffffffffffffffffffffff16815260200190815260200160002060009054906101000a900460ff16151514610dc6576040517f08c379a0000000000000000000000000000000000000000000000000000000008152600401610dbd90611883565b60405180910390fd5b60008211610e09576040517f08c379a0000000000000000000000000000000000000000000000000000000008152600401610e00906118ef565b60405180910390fd5b816000803373ffffffffffffffffffffffffffffffffffffffff1673ffffffffffffffffffffffffffffffffffffffff16815260200190815260200160002054610e5391906115f9565b6000803373ffffffffffffffffffffffffffffffffffffffff1673ffffffffffffffffffffffffffffffffffffffff16815260200190815260200160002081905550816000808573ffffffffffffffffffffffffffffffffffffffff1673ffffffffffffffffffffffffffffffffffffffff16815260200190815260200160002054610edf9190611705565b6000808573ffffffffffffffffffffffffffffffffffffffff1673ffffffffffffffffffffffffffffffffffffffff168152602001908152602001600020819055506040518060400160405280601281526020017f5472616e736665722053756363657366756c0000000000000000000000000000815250905092915050565b60006020528060005260406000206000915090505481565b60006110046040518060400160405280600c81526020017f55736572204578697374733a0000000000000000000000000000000000000000815250600160003373ffffffffffffffffffffffffffffffffffffffff1673ffffffffffffffffffffffffffffffffffffffff16815260200190815260200160002060009054906101000a900460ff166110f2565b600160003373ffffffffffffffffffffffffffffffffffffffff1673ffffffffffffffffffffffffffffffffffffffff16815260200190815260200160002060009054906101000a900460ff16905090565b6110ee828260405160240161106c92919061190f565b6040516020818303038152906040527fb60e72cc000000000000000000000000000000000000000000000000000000007bffffffffffffffffffffffffffffffffffffffffffffffffffffffff19166020820180517bffffffffffffffffffffffffffffffffffffffffffffffffffffffff838183161783525050505061118e565b5050565b61118a828260405160240161110892919061193f565b6040516020818303038152906040527fc3b55635000000000000000000000000000000000000000000000000000000007bffffffffffffffffffffffffffffffffffffffffffffffffffffffff19166020820180517bffffffffffffffffffffffffffffffffffffffffffffffffffffffff838183161783525050505061118e565b5050565b60008151905060006a636f6e736f6c652e6c6f679050602083016000808483855afa5050505050565b600080fd5b600073ffffffffffffffffffffffffffffffffffffffff82169050919050565b60006111e7826111bc565b9050919050565b6111f7816111dc565b811461120257600080fd5b50565b600081359050611214816111ee565b92915050565b6000602082840312156112305761122f6111b7565b5b600061123e84828501611205565b91505092915050565b60008115159050919050565b61125c81611247565b82525050565b60006020820190506112776000830184611253565b92915050565b6000819050919050565b6112908161127d565b811461129b57600080fd5b50565b6000813590506112ad81611287565b92915050565b6000602082840312156112c9576112c86111b7565b5b60006112d78482850161129e565b91505092915050565b600081519050919050565b600082825260208201905092915050565b60005b8381101561131a5780820151818401526020810190506112ff565b60008484015250505050565b6000601f19601f8301169050919050565b6000611342826112e0565b61134c81856112eb565b935061135c8185602086016112fc565b61136581611326565b840191505092915050565b6000602082019050818103600083015261138a8184611337565b905092915050565b600061139d826111bc565b9050919050565b6113ad81611392565b81146113b857600080fd5b50565b6000813590506113ca816113a4565b92915050565b600080604083850312156113e7576113e66111b7565b5b60006113f5858286016113bb565b92505060206114068582860161129e565b9150509250929050565b6114198161127d565b82525050565b60006020820190506114346000830184611410565b92915050565b7f696e73756666696365696e742062616c616e636520696e2042616e6b2061636360008201527f6f756e7400000000000000000000000000000000000000000000000000000000602082015250565b60006114966024836112eb565b91506114a18261143a565b604082019050919050565b600060208201905081810360008301526114c581611489565b9050919050565b7f4163636f756e74206973206e6f74206372656174656400000000000000000000600082015250565b60006115026016836112eb565b915061150d826114cc565b602082019050919050565b60006020820190508181036000830152611531816114f5565b9050919050565b7f456e746572206e6f6e2d7a65726f2076616c756520666f72207769746864726160008201527f77616c0000000000000000000000000000000000000000000000000000000000602082015250565b60006115946023836112eb565b915061159f82611538565b604082019050919050565b600060208201905081810360008301526115c381611587565b9050919050565b7f4e487b7100000000000000000000000000000000000000000000000000000000600052601160045260246000fd5b60006116048261127d565b915061160f8361127d565b9250828203905081811115611627576116266115ca565b5b92915050565b7f496e73756666696369656e742046756e64730000000000000000000000000000600082015250565b60006116636012836112eb565b915061166e8261162d565b602082019050919050565b6000602082019050818103600083015261169281611656565b9050919050565b7f56616c756520666f72206465706f736974206973205a65726f00000000000000600082015250565b60006116cf6019836112eb565b91506116da82611699565b602082019050919050565b600060208201905081810360008301526116fe816116c2565b9050919050565b60006117108261127d565b915061171b8361127d565b9250828201905080821115611733576117326115ca565b5b92915050565b7f4163636f756e7420416c72656164792043726561746564000000000000000000600082015250565b600061176f6017836112eb565b915061177a82611739565b602082019050919050565b6000602082019050818103600083015261179e81611762565b9050919050565b7f6163636f756e7420616c72656164792063726561746564000000000000000000600082015250565b60006117db6017836112eb565b91506117e6826117a5565b602082019050919050565b6000602082019050818103600083015261180a816117ce565b9050919050565b7f746f205472616e73666572206163636f756e7420646f6573206e6f742065786960008201527f73747320696e2062616e6b206163636f756e7473200000000000000000000000602082015250565b600061186d6035836112eb565b915061187882611811565b604082019050919050565b6000602082019050818103600083015261189c81611860565b9050919050565b7f456e746572206e6f6e2d7a65726f2076616c756520666f722073656e64696e67600082015250565b60006118d96020836112eb565b91506118e4826118a3565b602082019050919050565b60006020820190508181036000830152611908816118cc565b9050919050565b600060408201905081810360008301526119298185611337565b90506119386020830184611410565b9392505050565b600060408201905081810360008301526119598185611337565b90506119686020830184611253565b939250505056fea2646970667358221220d74126f6ec6c8a35c4df9cb6f38da27f0aeb774c25bf47bc120e18030abba17364736f6c63430008110033",
  "linkReferences": {},
  "deployedLinkReferences": {}
}